S01D000050574D5F4472617765725F536F75726365436F64652E7372656304
S11300000C9485000C94A2000C94A2000C94A20001
S11300100C94A2000C94A2000C94A2000C94A200D4
S11300200C94A2000C94A2000C94A2000C94A200C4
S11300300C94A2000C94A2000C94A2000C94A200B4
S11300400C94A2000C94A2000C94A2000C94A200A4
S11300500C94A2008A040D050D050D050D05690417
S11300600D050D050D050D050D050D050D05950475
S11300707F040D05A004AB04B604C104CC04D7046A
S1130080E204ED04F80403050D050D050D057404E3
S11300900D050D050D05AE030D05FB031104CF037E
S11300A0B9030D0532045E040D0527040D0548044B
S11300B0F0030D050D05DA03C40353041C04E50322
S11300C00D050D050D0506043D040D050D050D0575
S11300D00D050D050D05AE030D05FB031104CF033E
S11300E0B9030D0532045E040D0527040D0548040B
S11300F0F0030D050D05DA03C40353041C04E503E2
S11301000D050D050D0506043D0411241FBECFE5A4
S1130110D8E0DEBFCDBF10E0A0E6B0E0E4EDF5E14D
S113012002C005900D92AA3AB107D9F720E0AAEAD5
S1130130B0E001C01D92AD3AB207E1F70E9401069A
S11301400C94E80A0C9400000E94CE020E94DB0585
S113015080EA90E00E948C088CE990E00E945D07A0
S113016008958F929F92AF92BF92CF92DF92EF92B7
S1130170FF920F931F93CF93DF93CDB7DEB72897EA
S11301800FB6F894DEBF0FBECDBF8C0119821A8260
S11301901B821C821D821E821F821886AE014F5F45
S11301A05F4F68E070E080E00E941908CD80DE8037
S11301B0EF80F884F801C186D286E386F4868980CC
S11301C09A80AB80BC8081829282A382B482A50192
S11301D09401C701B6010E949308F80165837683F0
S11301E087839087A701960160E070E080E89FE331
S11301F00E940009F801658776878787908B20E045
S113020030E048EC52E4C501B4010E942F0AA70172
S113021096010E9400090E947209F80160832896E1
S11302200FB6F894DEBF0FBECDBFDF91CF911F9103
S11302300F91FF90EF90DF90CF90BF90AF909F9081
S11302408F900895AF92BF92CF92DF92EF92FF9278
S11302500F931F93CF93DF93CDB7DEB7EC970FB611
S1130260F894DEBF0FBECDBF5C016A017B010E9422
S1130270DB0580E00E94C7058CE0E0E6F0E0DE01EB
S1130280119601900D928A95E1F7FE013D9683E067
S1130290DF011D928A95E9F7CE0101960E942B0594
S11302A0F50165857685878590890E947B0585E0C3
S11302B0E7E9F0E0DE01509601900D928A95E1F7AE
S11302C0CE0140960E942B0581E00E94C70587E07D
S11302D0EFE6F0E0DE01559601900D928A95E1F784
S11302E0FE017C9688E0DF011D928A95E9F7CE0134
S11302F045960E942B05F501808190E00E94380507
S113030080917E0090917F009DA38CA380918000BA
S1130310909181009FA38EA318A6CE0184960E947B
S11303202B0586E00E94C70510E04EC020E430E4AF
S11303304EE752E062E070E080E090E00E9440030B
S11303401B5F00E00CC022E032E042E052E062E0D9
S113035070E080E090E00E9440031B5F0F5FD501D6
S113036011966D917D918D919C911497A7019601A1
S11303700E9400090E947209061728F322E032E065
S11303804EE750E460E470E080E090E00E944003B7
S11303901B5F00E00CC020E430E440E450E460E47F
S11303A070E080E090E00E9440031B5F0F5FF50166
S11303B06581768187819085A70196010E94000955
S11303C00E947209061738F3183708F4AFCF85E096
S11303D00E94C70520E03EE348E05CE16AE270E089
S11303E080E090E00E94400310E00BC028E038E079
S11303F048E058E068E070E080E090E00E9440034C
S11304001F5FD50111966D917D918D919C911497EB
S1130410A70196010E9400090E947209161730F381
S113042028E038E048E058E068E070E080E090E0E0
S11304300E94400310E00BC028E038E048E058E098
S113044068E070E080E090E00E9440031F5FF501E7
S11304506581768187819085A70196010E940009B4
S11304600E947209161740F32AE23CE148E05EE379
S113047060E070E080E090E00E94400384E00E942D
S1130480C70588E0E3E8F0E0DE01999601900D925B
S11304908A95E1F7FE01F19687E0DF011D928A95C6
S11304A0E9F7CE0189960E942B05F50161857285D5
S11304B0838594850E947B0585E0E2E9F0E0DE0116
S11304C0D89601900D928A95E1F7CE01C8960E94C4
S11304D02B05EC960FB6F894DEBF0FBECDBFDF91AF
S11304E0CF911F910F91FF90EF90DF90CF90BF902D
S11304F0AF900895813089F028F08230C9F08330BC
S113050011F1089540E064E081E00E94A50640E016
S113051065E081E00E94A506089541E064E081E081
S11305200E94A50640E065E081E00E94A5060895CA
S113053040E064E081E00E94A50641E065E081E0DE
S11305400E94A506089541E064E081E00E94A506AA
S113055041E065E081E00E94A5060895CF93C82F8D
S113056040E062E081E00E94A50640E061E081E0B5
S11305700E94A5066C2F80E00E94280741E060E0FD
S113058081E00E94A5068AE18A95F1F700C040E067
S113059060E081E00E94A506CF91089541E060E00B
S11305A081E00E94320641E062E081E00E9432066E
S11305B041E061E081E00E94320641E066E081E0D2
S11305C00E94320641E064E081E00E94320641E08C
S11305D065E081E00E94320661E080E00E94180735
S11305E041E066E081E00E94A50683E00E947A0271
S11305F08EE30E94AE0288EB0E94AE021092AC0021
S113060080E40E94AE021092AB0080EC0E94AE0225
S11306108FE30E94AE0281E00E947A021092AA0047
S11306200895CF93C82F41E062E081E00E94A506BF
S113063040E061E081E00E94A5066C2F80E00E940A
S1130640280741E060E081E00E94A5068AE18A95DE
S1130650F1F700C040E060E081E00E94A506CF9180
S1130660089540E066E081E00E94A50685E38A954E
S1130670F1F7000041E066E081E00E94A5060895DC
S11306809F92AF92BF92CF92DF92EF92FF920F931D
S11306901F93CF93DF93922EA32EB42EC52ED62E66
S11306A0E72EF82ED92FC0E030C08091AC008854DA
S11306B00E94AE028091AB00805C0E94AE020C2FBF
S11306C010E0000F111F000F111F000F111F292D23
S11306D03A2D4B2D5C2D6D2D7E2D8F2D9D2F0E943F
S11306E0B80A822F0E9411038091AB008F5F809320
S11306F0AB00803448F08091AA00811105C082E0EB
S11307000E947A021092AA00CF5FC53070F2DF9186
S1130710CF911F910F91FF90EF90DF90CF90BF90FA
S1130720AF909F900895E82F91E08091AA008111E5
S113073090E081E02091AB00293308F080E0892B20
S113074009F488C18E2F90E0FC01B097EB35F105D8
S113075008F063C1E65DFF4F0C94B00A2CE732E168
S113076041E152E16CE770E080E090E00E944003D8
S113077054C12FE739E049E059E061E070E080E0DE
S113078090E00E94400349C12FE739E049E159E272
S11307906FE470E080E090E00E9440033EC12FE7E8
S11307A039E449E459E461E470E080E090E00E94B7
S11307B0400333C12EE131E241E35EE360E470E0E3
S11307C080E090E00E94400328C12FE330E440E43D
S11307D050E46FE370E080E090E00E9440031DC1AC
S11307E02FE732E04CE150E26FE770E080E090E008
S11307F00E94400312C12EE331E441E451E461E478
S113080070E080E090E00E94400307C123E03CE0F8
S113081040E75CE063E070E080E090E00E94400329
S1130820FCC02FE731E441E45EE360E070E080E087
S113083090E00E944003F1C021E031E04FE751E035
S113084061E070E080E090E00E944003E6C02FE7A2
S113085038E044E152E261E470E080E090E00E941C
S11308604003DBC02FE738E048E058E06FE770E072
S113087080E090E00E944003D0C021E631E549E4E5
S113088055E463E470E080E090E00E944003C5C05A
S11308902FE732E04CE052E06FE770E080E090E058
S11308A00E944003BAC02FE439E449E459E469EFF3
S11308B070E080E090E00E944003AFC021E431E4A6
S11308C04FE751E461E470E080E090E00E9440036F
S11308D0A4C023EC33E748E15EEC63EC70E080E015
S11308E090E00E94400399C024E234E244E254E2DE
S11308F064E270E080E090E00E9440038EC020E05B
S113090030E740E750E760E070E080E090E00E946C
S1130910400383C020E030E040E050E060E070E05D
S113092080E090E00E94400378C028E138E148E18B
S113093058E168E170E080E090E00E9440036DC0FF
S11309402EE331E549E455E46EE370E080E090E0A5
S11309500E94400362C024E432E44FE750E460E4C0
S113096070E080E090E00E94400357C026E431E646
S113097041E55EE460E470E080E090E00E944003C2
S11309804CC021E439E449E459E466E370E080E0D2
S113099090E00E94400341C028E134E142E15FE776
S11309A060E170E080E090E00E94400336C02FE4F4
S11309B039E449E451E561E270E080E090E00E94AE
S11309C040032BC02CE73AE449E459E461E370E0C6
S11309D080E090E00E94400320C021E039E449E235
S11309E059E16FE070E080E090E00E94400315C0A0
S11309F027E739E449E459E467E770E080E090E0F0
S1130A000E9440030AC02FE439E449E459E46FE743
S1130A1070E080E090E00E9440038091AC00885434
S1130A200E94AE028091AB00805C0E94AE0280E026
S1130A300E9411038091AB008F5F8093AB008034E0
S1130A4048F08091AA00811105C082E00E947A02D8
S1130A501092AB000895CF93DF93EC0103C00E9482
S1130A609303219688818111FACFDF91CF91089564
S1130A70EF92FF920F931F93CF93DF9300D000D098
S1130A801F92CDB7DEB78C01992334F48DE20E9416
S1130A9093031195019511091A821982FE01339667
S1130AA083E0DF011D928A95E9F732977F01C8013F
S1130AB06AE070E00E949C0A805DD7018D937D01FD
S1130AC0062F172F1016110694F3F70182917F0158
S1130AD00E949303CE0101968E159F05B1F70F90E6
S1130AE00F900F900F900F90DF91CF911F910F9166
S1130AF0FF90EF9008958F929F92AF92BF92CF9202
S1130B00DF92EF92FF92CF93DF934B015C010E943F
S1130B1072096B017C01CB010E9438058EE20E94B0
S1130B209303B60180E090E00E94A1099B01AC010F
S1130B30C501B4010E949308D0E01CC020E030E05D
S1130B4040E251E40E942F0A6B017C010E94720969
S1130B50C62F80E38C0F0E9493036C2F70E080E01B
S1130B6090E00E94A3099B01AC01C701B6010E9459
S1130B709308DF5FD33010F3DF91CF91FF90EF90B4
S1130B80DF90CF90BF90AF909F908F900895CF93B8
S1130B90883078F4C82F81E00E947A02C093AC00B8
S1130BA088EB8C0F0E94AE021092AB0080E40E948E
S1130BB0AE02CF910895CF93DF93D0E013C08D2F71
S1130BC00E94C70583E00E947A02C0E008C080E466
S1130BD08C0F0E94AE0280E00E941103CF5FC034EC
S1130BE0B0F3DF5FD83058F30E94310381E00E94F4
S1130BF07A021092AA0080E00E94C705DF91CF918B
S1130C000895CF93DF93CDB7DEB761970FB6F8940D
S1130C10DEBF0FBECDBF0E94A400FE01319681E16C
S1130C20DF011D928A95E9F7CE0101960E94B10079
S1130C306A857B858C859D8520E030E040EA50E420
S1130C400E940009AB01BC01CE0101960E94220161
S1130C50BFEF21EE84E0B15020408040E1F700C0B6
S1130C600000E2CF423008F06FC04130A1F581307E
S1130C7089F028F08230C9F0833011F108952AB345
S1130C8081E090E002C0880F991F6A95E2F7822BF9
S1130C908ABB089527B381E090E002C0880F991FB2
S1130CA06A95E2F7822B87BB089524B381E090E034
S1130CB002C0880F991F6A95E2F7822B84BB0895BE
S1130CC021B381E090E002C0880F991F6A95E2F792
S1130CD0822B81BB0895411137C0813091F028F0F7
S1130CE08230D9F0833029F108952AB381E090E06D
S1130CF002C0880F991F6A95E2F7809582238ABB08
S1130D00089527B381E090E002C0880F991F6A9587
S1130D10E2F78095822387BB089524B381E090E0B5
S1130D2002C0880F991F6A95E2F78095822384BBDD
S1130D30089521B381E090E002C0880F991F6A955D
S1130D40E2F78095822381BB0895423008F06FC09A
S1130D504130A1F5813089F028F08230C9F0833028
S1130D6011F108952BB381E090E002C0880F991F20
S1130D706A95E2F7822B8BBB089528B381E090E05B
S1130D8002C0880F991F6A95E2F7822B88BB0895E9
S1130D9025B381E090E002C0880F991F6A95E2F7BD
S1130DA0822B85BB089522B381E090E002C0880FB6
S1130DB0991F6A95E2F7822B82BB0895411137C0CF
S1130DC0813091F028F08230D9F0833029F10895F0
S1130DD02BB381E090E002C0880F991F6A95E2F777
S1130DE0809582238BBB089528B381E090E002C0F4
S1130DF0880F991F6A95E2F78095822388BB08952E
S1130E0025B381E090E002C0880F991F6A95E2F74C
S1130E108095822385BB089522B381E090E002C0CF
S1130E20880F991F6A95E2F78095822382BB089503
S1130E30813041F028F0823039F0833039F0089560
S1130E406ABB089567BB089564BB089561BB0895A8
S1130E50813041F028F0823039F0833039F0089540
S1130E606BBB089568BB089565BB089562BB089584
S1130E70CF93DF93EC0140E066E083E00E9432060A
S1130E801FBC1EBC9EB58981892B8EBD2EB59A814F
S1130E9030E4939FC0011124822B8EBD29B79B811E
S1130EA030E2939FC0011124822B89BF1DBC1CBC5E
S1130EB017BC16BCDF91CF910895FC01208121114C
S1130EC002C00E94380708959EB59F7B9EBD811184
S1130ED007C08EB590E4699FB0011124682B6EBDE4
S1130EE00895811102C01DBC1CBC0895811103C06A
S1130EF086B597B5089580E090E00895811108C003
S1130F0008B605FE07C088B7806288BF81E00895EF
S1130F1080E0089580E00895CF92DF92EF92FF92EF
S1130F200F931F93CF93DF937C018B0188B780626B
S1130F3088BF61E080E00E94640780E00E947E0731
S1130F408823D9F360E080E00E94640780E00E9477
S1130F50710788B7806288BF06C008B602FE03C066
S1130F6088B7846088BF80E00E947E078823A9F345
S1130F7080E00E9476076C0161E080E00E946407D3
S1130F8080E00E94710788B7806288BF06C008B6F7
S1130F9002FE03C088B7846088BF80E00E947E0799
S1130FA08823A9F380E00E947607EC01CE9CB0016F
S1130FB0CF9C700DDE9C700D112480E090E00E94A7
S1130FC0A10920E030E04AE754E40E942F0A20E01F
S1130FD034E244E75BE40E940009F8016083718312
S1130FE082839383CC0DDD1DEC9EB001ED9E700DCC
S1130FF0FC9E700D112480E090E00E94A10920E085
S113100030E04AE754E40E942F0A20E034E244E747
S11310105BE40E940009F8016483758386839783E7
S1131020DF91CF911F910F91FF90EF90DF90CF90C0
S11310300895811104C0CB01BA010E948C07089560
S1131040CF93DF93EC0141E063E081E00E9432063C
S113105013BE93B78981880F880F880F892B80640A
S113106083BF93B78B818295807F892B806283BFF6
S11310708A81843069F018F4833030F012C09AEF1A
S1131080980F943050F00DC093B7892B83BF09C0DB
S113109093B78150892B83BF04C093B78250892BA7
S11310A083BF1CBE8B81882319F08130A1F030C02E
S11310B068858FEF689FB001112480E090E00E9462
S11310C0A10920E030E048EC52E40E9400090E94AB
S11310D072096CBF1DC0688570E080E090E00E94DA
S11310E0A3099B01AC0160E070E088EC92E40E94EB
S11310F0930820E030E04FE753E40E942F0A20E0F9
S113110030E048EC52E40E9400090E9472096CBF6E
S113111012BEDF91CF910895FC012081211102C0FC
S11311200E94200808955058BB27AA270E94AB08A4
S11311300C94F5090E94E70938F00E94EE0920F0AA
S113114039F49F3F19F426F40C94E4090EF4E09565
S1131150E7FB0C94DE09E92F0E94060A58F3BA173C
S1131160620773078407950720F079F4A6F50C94B9
S1131170280A0EF4E0950B2EBA2FA02D0B01B9010D
S113118090010C01CA01A0011124FF27591B99F0F9
S1131190593F50F4503E68F11A16F040A22F232F05
S11311A0342F4427585FF3CF469537952795A79555
S11311B0F0405395C9F77EF41F16BA0B620B730BFC
S11311C0840BBAF09150A1F0FF0FBB1F661F771F6D
S11311D0881FC2F70EC0BA0F621F731F841F48F422
S11311E0879577956795B795F7959E3F08F0B0CFAB
S11311F09395880F08F09927EE0F97958795089592
S11312000E9414090C94F5090E94EE0958F00E94FA
S1131210E70940F029F45F3F29F00C94DE095111ED
S11312200C94290A0C94E4090E94060A68F3992391
S1131230B1F3552391F3951B550BBB27AA276217CE
S11312407307840738F09F5F5F4F220F331F441FDB
S1131250AA1FA9F335D00E2E3AF0E0E832D091500F
S11312605040E695001CCAF72BD0FE2F29D0660FFC
S1131270771F881FBB1F261737074807AB07B0E83F
S113128009F0BB0B802DBF01FF2793585F4F3AF045
S11312909E3F510578F00C94DE090C94290A5F3FB7
S11312A0E4F3983ED4F3869577956795B795F795CB
S11312B09F5FC9F7880F911D9695879597F90895B3
S11312C0E1E0660F771F881FBB1F6217730784074F
S11312D0BA0720F0621B730B840BBA0BEE1F88F75E
S11312E0E09508950E940E0A88F09F5798F0B92F50
S11312F09927B751B0F0E1F0660F771F881F991F47
S11313001AF0BA95C9F714C0B13091F00E94280AB6
S1131310B1E008950C94280A672F782F8827B85FC6
S113132039F0B93FCCF3869577956795B395D9F79E
S11313303EF490958095709561957F4F8F4F9F4FA8
S11313400895E89409C097FB3EF4909580957095B4
S113135061957F4F8F4F9F4F9923A9F0F92F96E9FD
S1131360BB279395F695879577956795B795F11172
S1131370F8CFFAF4BB0F11F460FF1BC06F5F7F4F0F
S11313808F4F9F4F16C0882311F096E911C0772321
S113139021F09EE8872F762F05C0662371F096E82A
S11313A0862F70E060E02AF09A95660F771F881FF9
S11313B0DAF7880F9695879597F9089597F99F67B7
S11313C080E870E060E008959FEF80EC08950024C9
S11313D00A941616170618060906089500240A9496
S11313E012161306140605060895092E0394000C1C
S11313F011F4882352F0BB0F40F4BF2B11F460FFAB
S113140004C06F5F7F4F8F4F9F4F089557FD9058D3
S1131410440F551F59F05F3F71F04795880F97FBB4
S1131420991F61F09F3F79F087950895121613066E
S11314301406551FF2CF4695F1DF08C0161617069D
S11314401806991FF1CF86957105610508940895D2
S1131450E894BB2766277727CB0197F908950E9464
S1131460420A0C94F5090E94E70938F00E94EE093B
S113147020F0952311F00C94DE090C94E409112456
S11314800C94290A0E94060A70F3959FC1F3950FE4
S113149050E0551F629FF001729FBB27F00DB11DF4
S11314A0639FAA27F00DB11DAA1F649F6627B00D84
S11314B0A11D661F829F2227B00DA11D621F739F6D
S11314C0B00DA11D621F839FA00D611D221F749F7B
S11314D03327A00D611D231F849F600D211D822FC2
S11314E0762F6A2F11249F5750409AF0F1F08823E9
S11314F04AF0EE0FFF1FBB1F661F771F881F915016
S11315005040A9F79E3F510580F00C94DE090C94DD
S1131510290A5F3FE4F3983ED4F38695779567955F
S1131520B795F795E7959F5FC1F7FE2B880F911D3F
S11315309695879597F9089597FB072E16F40094CE
S113154007D077FD09D00E94D40A07FC05D03EF4E9
S1131550909581959F4F0895709561957F4F08955B
S1131560EE0FFF1F0590F491E02D099497FB10F8FE
S1131570169400080F93083098F00850232F342F46
S1131580452F562F672F782F892F902DF4CF059450
S113159097958795779567955795479537952795A7
S11315A00A95AAF70F910895AA1BBB1B51E107C026
S11315B0AA1FBB1FA617B70710F0A61BB70B881FDF
S11315C0991F5A95A9F780959095BC01CD0108956E
S10715D0F894FFCFB9
S11315D44672657175656E63793D000000000044D0
S11315E47574793D0000000000000000000020250F
S11315F40000002054696D653D00000000000000F7
S11316040000206D730000206B487A000002000083
S10D161400010201000104005A0065
S9030000FC
